:100000000C9453000C94CC040C94CC040C94CC04AD
:100010000C947D040C94CC040C94CC040C94CC046F
:100020000C94CC040C94CC040C94CC040C94CC0410
:100030000C94CC040C94CC040C94CC040C94CC0400
:100040000C94CC040C94CC040C94CC040C94CC04F0
:100050000C94CC040C94CC040C9409040C94CC04A3
:100060000C94CC040C94CC040C94CC040C94CC04D0
:100070000C94CC040C94CC040C94CC040C94CC04C0
:100080000C94CC040C94CC040C94CC040C94CC04B0
:100090000C94CC040C94CC040C94CC040C94CC04A0
:1000A00028002807800011241FBECFEFCDBFDFE35B
:1000B000DEBFE0EAF0E040E017C0B591A5913591D0
:1000C0002591059107FD0CC095918591EF01F92FC0
:1000D000E82F05900D92A217B307D9F7FE0104C0CF
:1000E0001D92A217B307E1F7E53AF40731F70E9432
:0A00F0005E020C947B00F894FFCF31
:1000FA00ABE0B0E0E3E8F0E00C9425046C017B018E
:10010A008A01FC0116821782838181FFCCC1CE014C
:10011A0001963C01F6019381F70193FD859193FFC6
:10012A0081917F01882309F4BAC1853239F493FD9C
:10013A00859193FF81917F01853229F4B60190E080
:10014A000E946A03E7CF912C212C312CFFE1F31591
:10015A00D8F08B3279F038F4803279F08332A1F416
:10016A00232D20611DC08D3261F0803369F4232D67
:10017A00216016C0832D8260382EE32DE4603E2E66
:10018A002AC0F32DF8601DC037FC2DC020ED280FC2
:10019A002A3040F08E32B9F436FC81C1232D206416
:1001AA00322E19C036FE06C08AE0989E200D112410
:1001BA00922E11C0EAE02E9E200D1124222EF32D3C
:1001CA00F0623F2E08C08C3621F4832D8068382EC9
:1001DA0002C0883641F4F70193FD859193FF81911E
:1001EA007F018111B3CF982F9F7D9554933028F4C6
:1001FA000C5F1F4F9FE399830DC0833631F083371D
:10020A0071F0833509F059C021C0F80180818983D2
:10021A000E5F1F4F88248394912C530113C0280129
:10022A00F2E04F0E511CF801A080B18036FE03C0E7
:10023A00692D70E002C06FEF7FEFC5010E94BA041A
:10024A004C018201F32DFF773F2E16C0280122E0D0
:10025A00420E511CF801A080B18036FE03C0692D00
:10026A0070E002C06FEF7FEFC5010E94AF044C013E
:10027A00F32DF0683F2E820133FC1BC0822D90E0E3
:10028A0088169906B0F4B60180E290E00E946A03EB
:10029A002A94F4CFF50137FC859137FE81915F01ED
:1002AA00B60190E00E946A0321102A9421E0821A82
:1002BA0091088114910471F7E8C0843611F08936E7
:1002CA0041F5F80137FE07C060817181828193810F
:1002DA000C5F1F4F08C060817181072E000C880BCC
:1002EA00990B0E5F1F4FF32DFF763F2E97FF09C024
:1002FA0090958095709561957F4F8F4F9F4FF068CD
:10030A003F2E2AE030E0A3010E940C03882E8618B3
:10031A0045C0853731F4232D2F7EB22E2AE030E0F6
:10032A0025C0932D997FB92E8F36C1F018F48835E0
:10033A0079F0B5C0803719F0883721F0B0C0E92FBD
:10034A00E061BE2EB4FE0DC0FB2DF460BF2E09C0C5
:10035A0034FE0AC0292F2660B22E06C028E030E0FB
:10036A0005C020E130E002C020E132E0F801B7FE2A
:10037A0007C060817181828193810C5F1F4F06C023
:10038A006081718180E090E00E5F1F4FA3010E949F
:10039A000C03882E8618FB2DFF773F2E36FE0DC0E4
:1003AA00232D2E7FA22E891458F434FE0BC032FC62
:1003BA0009C0832D8E7EA82E05C0B82CA32C03C09D
:1003CA00B82C01C0B92CA4FE0FC0FE01E80DF11D26
:1003DA008081803321F49A2D997EA92E09C0A2FE2C
:1003EA0006C0B394B39404C08A2D867809F0B394F6
:1003FA00A3FC11C0A0FE06C0B21488F4280C922CEB
:10040A009B180EC0B21460F4B60180E290E00E941C
:10041A006A03B394F7CFB21418F42B1802C0982CBD
:10042A00212CA4FE10C0B60180E390E00E946A036A
:10043A00A2FE17C0A1FC03C088E790E002C088E5CD
:10044A0090E0B6010CC08A2D867859F0A1FE02C050
:10045A008BE201C080E2A7FC8DE2B60190E00E9427
:10046A006A03891438F4B60180E390E00E946A03B3
:10047A009A94F7CF8A94F301E80DF11D8081B601B1
:10048A0090E00E946A038110F5CF222009F442CE3F
:10049A00B60180E290E00E946A032A94F6CFF60140
:1004AA008681978102C08FEF9FEF2B96E2E10C9431
:0204BA003E04FE
:1004BC00CF93DF93CDB7DEB72597CDBFDEBF00E47A
:1004CC0011E080E7F801808B0E94ED03FF24F39488
:1004DC00F801F28AF092820488E080930104E0E54E
:1004EC00F0E08081897F8083F8940E94A603789441
:1004FC00F80180898160808B0E948F048AE899E4DE
:10050C000E94A004F0920806E12CF12C0F2EF8ECBE
:10051C008F2EF02D912C0F2EFCEB6F2EF02D68945E
:10052C00772471F80F2EFEE15F2EF02D0F2EF5E9DA
:10053C00AF2EF9E4BF2EF02DCE0101966C0100E533
:10054C0010E080910628882361F1209100283091D9
:10055C000128529EC001539E900D112480930228B5
:10056C009093032880910228909103289F938F9356
:10057C00BF92AF92DF92CF920E94CB0380EC0E948D
:10058C006B04C6010E94A00410920028109201284E
:10059C00109206280F900F900F900F900F900F90C5
:1005AC002CC080910428909105288935924088F0C0
:1005BC00F8E5EF16F2E0FF0660F4809100289091C8
:1005CC00012801968093002890930128E62CF72CA3
:1005DC0014C080910428909105288935924040F0F0
:1005EC0089E5E81682E0F80630F0E62CF72C05C019
:1005FC00E82CF92C02C0E82CF92CF80180818160E0
:0C060C008083889580818E7F80839BCF47
:10061800FA01AA27283051F1203181F1E8946F932B
:100628006E7F6E5F7F4F8F4F9F4FAF4FB1E03ED0D1
:10063800B4E03CD0670F781F891F9A1FA11D680F6F
:10064800791F8A1F911DA11D6A0F711D811D911DA2
:10065800A11D20D009F468943F912AE0269F112417
:100668003019305D3193DEF6CF010895462F47707B
:10067800405D4193B3E00FD0C9F7F6CF462F4F70D6
:10068800405D4A3318F0495D31FD4052419302D034
:10069800A9F7EACFB4E0A6959795879577956795DA
:1006A800BA95C9F700976105710508959B01AC01DA
:1006B8000A2E06945795479537952795BA95C9F701
:0C06C800620F731F841F951FA01D089572
:1006D4000F931F93CF93DF93FB01238121FD03C06D
:1006E4008FEF9FEF2CC022FF16C0468157812481D3
:1006F40035814217530744F4A081B1819D012F5FD6
:100704003F4F208331838C93268137812F5F3F4F66
:100714002683378314C08B01EC01FB010084F1852F
:10072400E02D0995892BE1F6D80116968D919C91BF
:100734001797019616968D939C931797CE01DF9188
:08074400CF911F910F91089560
:10074C00E0E2F4E088E3818380E2858388E18683BC
:10075C00E0E6F4E08FEF8083148282E48A95F1F76F
:10076C0000C083E30E946B0488E30E946B048CE05E
:10077C000E946B0481E00E946B0480E80E946B0471
:0A078C008FE68A95F1F7000008954A
:10079600AEE0B0E0E1EDF3E00C9433040D891E8980
:1007A60086E08C8309831A838FEF9FE78D839E8370
:1007B600AE01475E5F4F6F89788DCE0101960E942C
:1007C6007D00EF81F885E00FF11F10822E96E4E0A0
:0407D6000C944C042F
:1007DA00E0E8F4E08089887F808B80898460808B60
:1007EA008089877F808BE0E0F6E083E0828381E086
:1007FA00808388E08683A0EAB0E08C9180628C9343
:08080A00828581608287089558
:100812001F920F920FB60F9211248F939F93EF9313
:10082200FF93E0E0F6E08089918980930428909319
:10083200052881E08087FF91EF919F918F910F9022
:080842000FBE0F901F901895E6
:10084A002F923F924F925F926F927F928F929F92D6
:10085A00AF92BF92CF92DF92EF92FF920F931F93C4
:10086A00CF93DF93CDB7DEB7CA1BDB0BCDBFDEBF9D
:02087A000994DF
:10087C002A88398848885F846E847D848C849B8424
:10088C00AA84B984C884DF80EE80FD800C811B8132
:10089C00AA81B981CE0FD11DCDBFDEBFED01089568
:1008AC0080936404E0E2F4E080E1858388E0858352
:1008BC0092E49A95F1F700C0868382E48A95F1F769
:0A08CC0000C086E00E946B0408954E
:1008D60080936404E0E2F4E080E1868388E0858327
:1008E60092E49A95F1F700C0868382E48A95F1F73F
:0408F60000C00895A1
:1008FA001F920F920FB60F9211248F9381E080936B
:10090A00530185E0809306288F910F900FBE0F90B8
:04091A001F9018957D
:10091E0081E00E946B0482E896E00197F1F700C037
:10092E0080E80E946B0482E896E00197F1F700C020
:02093E0008951A
:10094000CF93DF93EC018881882331F021960E94B8
:0E095000560489918111FBCFDF91CF9108955C
:10095E00FC010590615070400110D8F7809590957C
:06096E008E0F9F1F08958B
:10097400FC016150704001900110D8F7809590956A
:060984008E0F9F1F089575
:0E098A0052504D20436F756E743A0025640084
:040998000C940000BB
:00000001FF
